{
  "address": "0x484CEb1518B4449f54Cf45c8d465Ea927F8E66ac",
  "abi": [
    {
      "inputs": [
        {
          "internalType": "address",
          "name": "aCaller",
          "type": "address"
        }
      ],
      "stateMutability": "nonpayable",
      "type": "constructor"
    },
    {
      "inputs": [],
      "name": "TASKCANCELLED",
      "outputs": [
        {
          "internalType": "uint256",
          "name": "",
          "type": "uint256"
        }
      ],
      "stateMutability": "view",
      "type": "function"
    },
    {
      "inputs": [],
      "name": "TASKDONE",
      "outputs": [
        {
          "internalType": "uint256",
          "name": "",
          "type": "uint256"
        }
      ],
      "stateMutability": "view",
      "type": "function"
    },
    {
      "inputs": [],
      "name": "TASKINIT",
      "outputs": [
        {
          "internalType": "uint256",
          "name": "",
          "type": "uint256"
        }
      ],
      "stateMutability": "view",
      "type": "function"
    },
    {
      "inputs": [],
      "name": "TASKPROCESSING",
      "outputs": [
        {
          "internalType": "uint256",
          "name": "",
          "type": "uint256"
        }
      ],
      "stateMutability": "view",
      "type": "function"
    },
    {
      "inputs": [],
      "name": "WITHDRAWTASK",
      "outputs": [
        {
          "internalType": "uint256",
          "name": "",
          "type": "uint256"
        }
      ],
      "stateMutability": "view",
      "type": "function"
    },
    {
      "inputs": [
        {
          "internalType": "bytes32",
          "name": "taskHash",
          "type": "bytes32"
        }
      ],
      "name": "cancelTask",
      "outputs": [
        {
          "internalType": "uint256",
          "name": "",
          "type": "uint256"
        }
      ],
      "stateMutability": "nonpayable",
      "type": "function"
    },
    {
      "inputs": [],
      "name": "getStoreAddress",
      "outputs": [
        {
          "internalType": "address",
          "name": "",
          "type": "address"
        }
      ],
      "stateMutability": "view",
      "type": "function"
    },
    {
      "inputs": [],
      "name": "name",
      "outputs": [
        {
          "internalType": "string",
          "name": "",
          "type": "string"
        }
      ],
      "stateMutability": "view",
      "type": "function"
    },
    {
      "inputs": [
        {
          "internalType": "address",
          "name": "storeAddress",
          "type": "address"
        }
      ],
      "name": "resetStoreLogic",
      "outputs": [],
      "stateMutability": "nonpayable",
      "type": "function"
    },
    {
      "inputs": [
        {
          "internalType": "uint256",
          "name": "taskType",
          "type": "uint256"
        },
        {
          "internalType": "bytes32",
          "name": "taskHash",
          "type": "bytes32"
        },
        {
          "internalType": "address",
          "name": "oneAddress",
          "type": "address"
        },
        {
          "internalType": "uint256",
          "name": "requireNum",
          "type": "uint256"
        }
      ],
      "name": "supportTask",
      "outputs": [
        {
          "internalType": "uint256",
          "name": "",
          "type": "uint256"
        }
      ],
      "stateMutability": "nonpayable",
      "type": "function"
    }
  ],
  "transactionHash": "0xd8c645907e1ae00118c58e4951b0e9df2e8c5a573c1291d691cb7fd6b54f4388",
  "args": [
    "0x88C83c4362D4fFE594B7Eb6c9a4Be791947a84D7"
  ],
  "solcInputHash": "858b88442f475aab560f604ffd41c600",
  "bytecode": "0x608060405234801561001057600080fd5b50604051610da8380380610da88339818101604052602081101561003357600080fd5b8101908080519060200190929190505050806000806101000a81548173ffffffffffffffffffffffffffffffffffffffff021916908373ffffffffffffffffffffffffffffffffffffffff16021790555050610d14806100946000396000f3fe608060405234801561001057600080fd5b506004361061008e5760003560e01c806306fdde031461009357806310224a98146101165780634785380214610134578063ae0fd47f14610152578063afd464f2146101c8578063b07ed3a9146101e6578063b0d803461461021a578063ee8ca3b51461025e578063f54b8cd3146102a0578063f73ea036146102be575b600080fd5b61009b6102dc565b6040518080602001828103825283818151815260200191508051906020019080838360005b838110156100db5780820151818401526020810190506100c0565b50505050905090810190601f1680156101085780820380516001836020036101000a031916815260200191505b509250505060405180910390f35b61011e610315565b6040518082815260200191505060405180910390f35b61013c61031a565b6040518082815260200191505060405180910390f35b6101b26004803603608081101561016857600080fd5b810190808035906020019092919080359060200190929190803573ffffffffffffffffffffffffffffffffffffffff1690602001909291908035906020019092919050505061031f565b6040518082815260200191505060405180910390f35b6101d0610856565b6040518082815260200191505060405180910390f35b6101ee61085b565b604051808273ffffffffffffffffffffffffffffffffffffffff16815260200191505060405180910390f35b61025c6004803603602081101561023057600080fd5b81019080803573ffffffffffffffffffffffffffffffffffffffff169060200190929190505050610885565b005b61028a6004803603602081101561027457600080fd5b810190808035906020019092919050505061098a565b6040518082815260200191505060405180910390f35b6102a8610cd4565b6040518082815260200191505060405180910390f35b6102c6610cd9565b6040518082815260200191505060405180910390f35b6040518060400160405280600b81526020017f4272696467654c6f67696300000000000000000000000000000000000000000081525081565b600381565b600181565b60008060009054906101000a900473ffffffffffffffffffffffffffffffffffffffff1673ffffffffffffffffffffffffffffffffffffffff163373ffffffffffffffffffffffffffffffffffffffff16146103e3576040517f08c379a000000000000000000000000000000000000000000000000000000000815260040180806020018281038252601b8152602001807f6f6e6c79206d61696e20636f6e74726163742063616e2063616c6c000000000081525060200191505060405180910390fd5b600160009054906101000a900473ffffffffffffffffffffffffffffffffffffffff1673ffffffffffffffffffffffffffffffffffffffff1663ce71e54885856040518363ffffffff1660e01b8152600401808381526020018273ffffffffffffffffffffffffffffffffffffffff1681526020019250505060206040518083038186803b15801561047457600080fd5b505afa158015610488573d6000803e3d6000fd5b505050506040513d602081101561049e57600080fd5b810190808051906020019092919050505015610522576040517f08c379a00000000000000000000000000000000000000000000000000000000081526004018080602001828103825260188152602001807f737570706f7274657220616c726561647920657869737473000000000000000081525060200191505060405180910390fd5b6000806000600160009054906101000a900473ffffffffffffffffffffffffffffffffffffffff1673ffffffffffffffffffffffffffffffffffffffff16634ad52e02886040518263ffffffff1660e01b81526004018082815260200191505060606040518083038186803b15801561059a57600080fd5b505afa1580156105ae573d6000803e3d6000fd5b505050506040513d60608110156105c457600080fd5b8101908080519060200190929190805190602001909291908051906020019092919050505092509250925060038210610665576040517f08c379a000000000000000000000000000000000000000000000000000000000815260040180806020018281038252600c8152602001807f77726f6e6720737461747573000000000000000000000000000000000000000081525060200191505060405180910390fd5b600082146106e3578783146106e2576040517f08c379a00000000000000000000000000000000000000000000000000000000081526004018080602001828103825260138152602001807f7461736b2074797065206e6f74206d617463680000000000000000000000000081525060200191505060405180910390fd5b5b600160009054906101000a900473ffffffffffffffffffffffffffffffffffffffff1673ffffffffffffffffffffffffffffffffffffffff1663db6b14de88886040518363ffffffff1660e01b8152600401808381526020018273ffffffffffffffffffffffffffffffffffffffff16815260200192505050600060405180830381600087803b15801561077657600080fd5b505af115801561078a573d6000803e3d6000fd5b5050505080806001019150508481106107a657600391506107ab565b600191505b600160009054906101000a900473ffffffffffffffffffffffffffffffffffffffff1673ffffffffffffffffffffffffffffffffffffffff16635761b347888a856040518463ffffffff1660e01b8152600401808481526020018381526020018281526020019350505050600060405180830381600087803b15801561083057600080fd5b505af1158015610844573d6000803e3d6000fd5b50505050819350505050949350505050565b600181565b6000600160009054906101000a900473ffffffffffffffffffffffffffffffffffffffff16905090565b60008054906101000a900473ffffffffffffffffffffffffffffffffffffffff1673ffffffffffffffffffffffffffffffffffffffff163373ffffffffffffffffffffffffffffffffffffffff1614610946576040517f08c379a000000000000000000000000000000000000000000000000000000000815260040180806020018281038252601b8152602001807f6f6e6c79206d61696e20636f6e74726163742063616e2063616c6c000000000081525060200191505060405180910390fd5b80600160006101000a81548173ffffffffffffffffffffffffffffffffffffffff021916908373ffffffffffffffffffffffffffffffffffffffff16021790555050565b60008060009054906101000a900473ffffffffffffffffffffffffffffffffffffffff1673ffffffffffffffffffffffffffffffffffffffff163373ffffffffffffffffffffffffffffffffffffffff1614610a4e576040517f08c379a000000000000000000000000000000000000000000000000000000000815260040180806020018281038252601b8152602001807f6f6e6c79206d61696e20636f6e74726163742063616e2063616c6c000000000081525060200191505060405180910390fd5b6000806000600160009054906101000a900473ffffffffffffffffffffffffffffffffffffffff1673ffffffffffffffffffffffffffffffffffffffff16634ad52e02866040518263ffffffff1660e01b81526004018082815260200191505060606040518083038186803b158015610ac657600080fd5b505afa158015610ada573d6000803e3d6000fd5b505050506040513d6060811015610af057600080fd5b8101908080519060200190929190805190602001909291908051906020019092919050505092509250925060018214610b91576040517f08c379a000000000000000000000000000000000000000000000000000000000815260040180806020018281038252600c8152602001807f77726f6e6720737461747573000000000000000000000000000000000000000081525060200191505060405180910390fd5b6000811115610c2857600160009054906101000a900473ffffffffffffffffffffffffffffffffffffffff1673ffffffffffffffffffffffffffffffffffffffff16639dce7108866040518263ffffffff1660e01b815260040180828152602001915050600060405180830381600087803b158015610c0f57600080fd5b505af1158015610c23573d6000803e3d6000fd5b505050505b60029150600160009054906101000a900473ffffffffffffffffffffffffffffffffffffffff1673ffffffffffffffffffffffffffffffffffffffff16635761b3478685856040518463ffffffff1660e01b8152600401808481526020018381526020018281526020019350505050600060405180830381600087803b158015610cb157600080fd5b505af1158015610cc5573d6000803e3d6000fd5b50505050819350505050919050565b600081565b60028156fea26469706673582212207c01194e07269c288ab159794c073bba79f636fd44e26d7aa3099623c42ecb3064736f6c63430007010033",
  "devdoc": {
    "kind": "dev",
    "methods": {},
    "version": 1
  },
  "userdoc": {
    "kind": "user",
    "methods": {},
    "version": 1
  },
  "storageLayout": {
    "storage": [
      {
        "astId": 1608,
        "contract": "contracts/BridgeLogic.sol:BridgeLogic",
        "label": "caller",
        "offset": 0,
        "slot": "0",
        "type": "t_address"
      },
      {
        "astId": 1610,
        "contract": "contracts/BridgeLogic.sol:BridgeLogic",
        "label": "store",
        "offset": 0,
        "slot": "1",
        "type": "t_contract(BridgeStorage)1921"
      }
    ],
    "types": {
      "t_address": {
        "encoding": "inplace",
        "label": "address",
        "numberOfBytes": "20"
      },
      "t_contract(BridgeStorage)1921": {
        "encoding": "inplace",
        "label": "contract BridgeStorage",
        "numberOfBytes": "20"
      }
    }
  }
}