{
  "_format": "hh-sol-artifact-1",
  "contractName": "Bridge",
  "sourceName": "contracts/Bridge.sol",
  "abi": [
    {
      "inputs": [
        {
          "internalType": "address[]",
          "name": "_owners",
          "type": "address[]"
        },
        {
          "internalType": "uint256",
          "name": "_ownerRequired",
          "type": "uint256"
        },
        {
          "internalType": "address",
          "name": "husdAddress",
          "type": "address"
        }
      ],
      "stateMutability": "nonpayable",
      "type": "constructor"
    },
    {
      "anonymous": false,
      "inputs": [
        {
          "indexed": false,
          "internalType": "string",
          "name": "TaskType",
          "type": "string"
        },
        {
          "indexed": false,
          "internalType": "string",
          "name": "class",
          "type": "string"
        },
        {
          "indexed": false,
          "internalType": "address",
          "name": "oldAddress",
          "type": "address"
        },
        {
          "indexed": false,
          "internalType": "address",
          "name": "newAddress",
          "type": "address"
        }
      ],
      "name": "AdminChanged",
      "type": "event"
    },
    {
      "anonymous": false,
      "inputs": [
        {
          "indexed": false,
          "internalType": "string",
          "name": "TaskType",
          "type": "string"
        },
        {
          "indexed": false,
          "internalType": "string",
          "name": "class",
          "type": "string"
        },
        {
          "indexed": false,
          "internalType": "uint256",
          "name": "previousNum",
          "type": "uint256"
        },
        {
          "indexed": false,
          "internalType": "uint256",
          "name": "requiredNum",
          "type": "uint256"
        }
      ],
      "name": "AdminRequiredNumChanged",
      "type": "event"
    },
    {
      "anonymous": false,
      "inputs": [
        {
          "indexed": false,
          "internalType": "bytes32",
          "name": "taskHash",
          "type": "bytes32"
        }
      ],
      "name": "AdminTaskDropped",
      "type": "event"
    },
    {
      "anonymous": false,
      "inputs": [
        {
          "indexed": true,
          "internalType": "address",
          "name": "from",
          "type": "address"
        },
        {
          "indexed": false,
          "internalType": "uint256",
          "name": "value",
          "type": "uint256"
        },
        {
          "indexed": false,
          "internalType": "string",
          "name": "targetAddress",
          "type": "string"
        },
        {
          "indexed": false,
          "internalType": "string",
          "name": "chain",
          "type": "string"
        }
      ],
      "name": "DepositNative",
      "type": "event"
    },
    {
      "anonymous": false,
      "inputs": [
        {
          "indexed": true,
          "internalType": "address",
          "name": "from",
          "type": "address"
        },
        {
          "indexed": false,
          "internalType": "uint256",
          "name": "value",
          "type": "uint256"
        },
        {
          "indexed": true,
          "internalType": "address",
          "name": "token",
          "type": "address"
        },
        {
          "indexed": false,
          "internalType": "string",
          "name": "targetAddress",
          "type": "string"
        },
        {
          "indexed": false,
          "internalType": "string",
          "name": "chain",
          "type": "string"
        }
      ],
      "name": "DepositToken",
      "type": "event"
    },
    {
      "anonymous": false,
      "inputs": [
        {
          "indexed": false,
          "internalType": "address",
          "name": "account",
          "type": "address"
        }
      ],
      "name": "Paused",
      "type": "event"
    },
    {
      "anonymous": false,
      "inputs": [
        {
          "indexed": false,
          "internalType": "address",
          "name": "account",
          "type": "address"
        }
      ],
      "name": "Unpaused",
      "type": "event"
    },
    {
      "anonymous": false,
      "inputs": [
        {
          "indexed": true,
          "internalType": "address",
          "name": "to",
          "type": "address"
        },
        {
          "indexed": false,
          "internalType": "uint256",
          "name": "value",
          "type": "uint256"
        },
        {
          "indexed": false,
          "internalType": "string",
          "name": "proof",
          "type": "string"
        }
      ],
      "name": "WithdrawDoneNative",
      "type": "event"
    },
    {
      "anonymous": false,
      "inputs": [
        {
          "indexed": true,
          "internalType": "address",
          "name": "to",
          "type": "address"
        },
        {
          "indexed": true,
          "internalType": "address",
          "name": "token",
          "type": "address"
        },
        {
          "indexed": false,
          "internalType": "uint256",
          "name": "value",
          "type": "uint256"
        },
        {
          "indexed": false,
          "internalType": "string",
          "name": "proof",
          "type": "string"
        }
      ],
      "name": "WithdrawDoneToken",
      "type": "event"
    },
    {
      "anonymous": false,
      "inputs": [
        {
          "indexed": true,
          "internalType": "address",
          "name": "to",
          "type": "address"
        },
        {
          "indexed": false,
          "internalType": "uint256",
          "name": "value",
          "type": "uint256"
        },
        {
          "indexed": false,
          "internalType": "string",
          "name": "proof",
          "type": "string"
        }
      ],
      "name": "WithdrawingNative",
      "type": "event"
    },
    {
      "anonymous": false,
      "inputs": [
        {
          "indexed": true,
          "internalType": "address",
          "name": "to",
          "type": "address"
        },
        {
          "indexed": true,
          "internalType": "address",
          "name": "token",
          "type": "address"
        },
        {
          "indexed": false,
          "internalType": "uint256",
          "name": "value",
          "type": "uint256"
        },
        {
          "indexed": false,
          "internalType": "string",
          "name": "proof",
          "type": "string"
        }
      ],
      "name": "WithdrawingToken",
      "type": "event"
    },
    {
      "inputs": [
        {
          "internalType": "string",
          "name": "class",
          "type": "string"
        },
        {
          "internalType": "address",
          "name": "oneAddress",
          "type": "address"
        }
      ],
      "name": "addAddress",
      "outputs": [
        {
          "internalType": "bool",
          "name": "",
          "type": "bool"
        }
      ],
      "stateMutability": "nonpayable",
      "type": "function"
    },
    {
      "inputs": [
        {
          "internalType": "string",
          "name": "_targetAddress",
          "type": "string"
        },
        {
          "internalType": "string",
          "name": "chain",
          "type": "string"
        }
      ],
      "name": "depositNative",
      "outputs": [],
      "stateMutability": "payable",
      "type": "function"
    },
    {
      "inputs": [
        {
          "internalType": "address",
          "name": "_token",
          "type": "address"
        },
        {
          "internalType": "uint256",
          "name": "value",
          "type": "uint256"
        },
        {
          "internalType": "string",
          "name": "_targetAddress",
          "type": "string"
        },
        {
          "internalType": "string",
          "name": "chain",
          "type": "string"
        }
      ],
      "name": "depositToken",
      "outputs": [],
      "stateMutability": "nonpayable",
      "type": "function"
    },
    {
      "inputs": [
        {
          "internalType": "string",
          "name": "class",
          "type": "string"
        },
        {
          "internalType": "address",
          "name": "oneAddress",
          "type": "address"
        }
      ],
      "name": "dropAddress",
      "outputs": [
        {
          "internalType": "bool",
          "name": "",
          "type": "bool"
        }
      ],
      "stateMutability": "nonpayable",
      "type": "function"
    },
    {
      "inputs": [
        {
          "internalType": "bytes32",
          "name": "taskHash",
          "type": "bytes32"
        }
      ],
      "name": "dropTask",
      "outputs": [
        {
          "internalType": "bool",
          "name": "",
          "type": "bool"
        }
      ],
      "stateMutability": "nonpayable",
      "type": "function"
    },
    {
      "inputs": [
        {
          "internalType": "string",
          "name": "class",
          "type": "string"
        }
      ],
      "name": "getAdminAddresses",
      "outputs": [
        {
          "internalType": "address[]",
          "name": "",
          "type": "address[]"
        }
      ],
      "stateMutability": "view",
      "type": "function"
    },
    {
      "inputs": [],
      "name": "getLogicAddress",
      "outputs": [
        {
          "internalType": "address",
          "name": "",
          "type": "address"
        }
      ],
      "stateMutability": "view",
      "type": "function"
    },
    {
      "inputs": [],
      "name": "getOperatorRequireNum",
      "outputs": [
        {
          "internalType": "uint256",
          "name": "",
          "type": "uint256"
        }
      ],
      "stateMutability": "view",
      "type": "function"
    },
    {
      "inputs": [],
      "name": "getOwnerRequireNum",
      "outputs": [
        {
          "internalType": "uint256",
          "name": "",
          "type": "uint256"
        }
      ],
      "stateMutability": "view",
      "type": "function"
    },
    {
      "inputs": [],
      "name": "getStoreAddress",
      "outputs": [
        {
          "internalType": "address",
          "name": "",
          "type": "address"
        }
      ],
      "stateMutability": "view",
      "type": "function"
    },
    {
      "inputs": [],
      "name": "husd",
      "outputs": [
        {
          "internalType": "address",
          "name": "",
          "type": "address"
        }
      ],
      "stateMutability": "view",
      "type": "function"
    },
    {
      "inputs": [
        {
          "internalType": "string",
          "name": "class",
          "type": "string"
        },
        {
          "internalType": "address",
          "name": "oldAddress",
          "type": "address"
        },
        {
          "internalType": "address",
          "name": "newAddress",
          "type": "address"
        }
      ],
      "name": "modifyAdminAddress",
      "outputs": [],
      "stateMutability": "nonpayable",
      "type": "function"
    },
    {
      "inputs": [],
      "name": "name",
      "outputs": [
        {
          "internalType": "string",
          "name": "",
          "type": "string"
        }
      ],
      "stateMutability": "view",
      "type": "function"
    },
    {
      "inputs": [],
      "name": "pause",
      "outputs": [],
      "stateMutability": "nonpayable",
      "type": "function"
    },
    {
      "inputs": [],
      "name": "paused",
      "outputs": [
        {
          "internalType": "bool",
          "name": "",
          "type": "bool"
        }
      ],
      "stateMutability": "view",
      "type": "function"
    },
    {
      "inputs": [
        {
          "internalType": "string",
          "name": "class",
          "type": "string"
        },
        {
          "internalType": "uint256",
          "name": "requiredNum",
          "type": "uint256"
        }
      ],
      "name": "resetRequiredNum",
      "outputs": [
        {
          "internalType": "bool",
          "name": "",
          "type": "bool"
        }
      ],
      "stateMutability": "nonpayable",
      "type": "function"
    },
    {
      "inputs": [],
      "name": "unpause",
      "outputs": [],
      "stateMutability": "nonpayable",
      "type": "function"
    },
    {
      "inputs": [
        {
          "internalType": "address payable",
          "name": "to",
          "type": "address"
        },
        {
          "internalType": "uint256",
          "name": "value",
          "type": "uint256"
        },
        {
          "internalType": "string",
          "name": "proof",
          "type": "string"
        },
        {
          "internalType": "bytes32",
          "name": "taskHash",
          "type": "bytes32"
        }
      ],
      "name": "withdrawNative",
      "outputs": [
        {
          "internalType": "bool",
          "name": "",
          "type": "bool"
        }
      ],
      "stateMutability": "nonpayable",
      "type": "function"
    },
    {
      "inputs": [
        {
          "internalType": "address",
          "name": "_token",
          "type": "address"
        },
        {
          "internalType": "address",
          "name": "to",
          "type": "address"
        },
        {
          "internalType": "uint256",
          "name": "value",
          "type": "uint256"
        },
        {
          "internalType": "string",
          "name": "proof",
          "type": "string"
        },
        {
          "internalType": "bytes32",
          "name": "taskHash",
          "type": "bytes32"
        }
      ],
      "name": "withdrawToken",
      "outputs": [
        {
          "internalType": "bool",
          "name": "",
          "type": "bool"
        }
      ],
      "stateMutability": "nonpayable",
      "type": "function"
    }
  ],
  "bytecode": "0x608060405260ff6000553480156200001657600080fd5b5060405162004ca938038062004ca9833981810160405260608110156200003c57600080fd5b81019080805160405193929190846401000000008211156200005d57600080fd5b838201915060208201858111156200007457600080fd5b82518660208202830111640100000000821117156200009257600080fd5b8083526020830192505050908051906020019060200280838360005b83811015620000cb578082015181840152602081019050620000ae565b5050505090500160405260200180519060200190929190805190602001909291905050506000600560006101000a81548160ff0219169083151502179055506200011c83836200016660201b60201c565b80600560016101000a81548173ffffffffffffffffffffffffffffffffffffffff021916908373ffffffffffffffffffffffffffffffffffffffff160217905550505050620006ae565b81518160005482111580156200017c5750818111155b8015620001895750600081115b8015620001965750600082115b620001a057600080fd5b60005b84518110156200020457620001f67f02016836a56b71f0d02689e69e326f4f4c1b9057164ef592671cf0d37c8040c060001b868381518110620001e257fe5b60200260200101516200044c60201b60201c565b8080600101915050620001a3565b506200024f7f0cc58340b26c619cd4edc70f833d3f4d9d26f3ae7d5ef2965f81fe5495049a4f60001b856000815181106200023b57fe5b60200260200101516200044c60201b60201c565b620002857f397bc5b97f629151e68146caedba62f10b47e426b38db589771a288c0861f18260001b60006200044c60201b60201c565b620002bb7fe41d88711b08bdcd7556c5d2d24e0da6fa1f614cf2055f4d7e10206017cd168060001b60016200044c60201b60201c565b60027f02016836a56b71f0d02689e69e326f4f4c1b9057164ef592671cf0d37c8040c060001b908060018154018082558091505060019003906000526020600020016000909190919091505560027f46a52cf33029de9f84853745a87af28464c80bf0346df1b32e205fc73319f62260001b908060018154018082558091505060019003906000526020600020016000909190919091505560027f0cc58340b26c619cd4edc70f833d3f4d9d26f3ae7d5ef2965f81fe5495049a4f60001b908060018154018082558091505060019003906000526020600020016000909190919091505560027fe41d88711b08bdcd7556c5d2d24e0da6fa1f614cf2055f4d7e10206017cd168060001b908060018154018082558091505060019003906000526020600020016000909190919091505560027f397bc5b97f629151e68146caedba62f10b47e426b38db589771a288c0861f18260001b908060018154018082558091505060019003906000526020600020016000909190919091505582600381905550600260048190555050505050565b6200045e8282620005de60201b60201c565b15620004d2576040517f08c379a00000000000000000000000000000000000000000000000000000000081526004018080602001828103825260118152602001807f647570206164647265737320616464656400000000000000000000000000000081525060200191505060405180910390fd5b60005460016000848152602001908152602001600020600201805490501062000563576040517f08c379a00000000000000000000000000000000000000000000000000000000081526004018080602001828103825260128152602001807f746f6f206d616e7920616464726573736573000000000000000000000000000081525060200191505060405180910390fd5b60016000838152602001908152602001600020600201819080600181540180825580915050600190039060005260206000200160009091909190916101000a81548173ffffffffffffffffffffffffffffffffffffffff021916908373ffffffffffffffffffffffffffffffffffffffff1602179055505050565b600080600090505b6001600085815260200190815260200160002060020180549050811015620006a2578273ffffffffffffffffffffffffffffffffffffffff166001600086815260200190815260200160002060020182815481106200064157fe5b9060005260206000200160009054906101000a900473ffffffffffffffffffffffffffffffffffffffff1673ffffffffffffffffffffffffffffffffffffffff16141562000694576001915050620006a8565b8080600101915050620005e6565b50600090505b92915050565b6145eb80620006be6000396000f3fe6080604052600436106100e45760003560e01c806302c1927c146100e957806306fdde031461021b5780631d75807c146102ab5780632c2df742146102d65780633f4ba83a146103de578063521cb590146103f55780635c975abb14610446578063686699bb146104735780638456cb59146104b45780638609d28c146104cb57806391c40bf71461061d578063abd108ba1461071b578063b07ed3a91461075c578063c8e369bf1461079d578063ceb35b0f146108ba578063d5b99d3c146109b8578063dd9b86c114610aca578063e6a81ec414610c53578063e9e211bd14610c7e575b600080fd5b3480156100f557600080fd5b50610203600480360360a081101561010c57600080fd5b81019080803573ffffffffffffffffffffffffffffffffffffffff169060200190929190803573ffffffffffffffffffffffffffffffffffffffff169060200190929190803590602001909291908035906020019064010000000081111561017357600080fd5b82018360208201111561018557600080fd5b803590602001918460018302840111640100000000831117156101a757600080fd5b91908080601f016020809104026020016040519081016040528093929190818152602001838380828437600081840152601f19601f82011690508083019250505050505050919291929080359060200190929190505050610d66565b60405180821515815260200191505060405180910390f35b34801561022757600080fd5b506102306118b1565b6040518080602001828103825283818151815260200191508051906020019080838360005b83811015610270578082015181840152602081019050610255565b50505050905090810190601f16801561029d5780820380516001836020036101000a031916815260200191505b509250505060405180910390f35b3480156102b757600080fd5b506102c06118ea565b6040518082815260200191505060405180910390f35b3480156102e257600080fd5b506103dc600480360360608110156102f957600080fd5b810190808035906020019064010000000081111561031657600080fd5b82018360208201111561032857600080fd5b8035906020019184600183028401116401000000008311171561034a57600080fd5b91908080601f016020809104026020016040519081016040528093929190818152602001838380828437600081840152601f19601f820116905080830192505050505050509192919290803573ffffffffffffffffffffffffffffffffffffffff169060200190929190803573ffffffffffffffffffffffffffffffffffffffff1690602001909291905050506118f4565b005b3480156103ea57600080fd5b506103f3611bed565b005b34801561040157600080fd5b5061042e6004803603602081101561041857600080fd5b8101908080359060200190929190505050611c96565b60405180821515815260200191505060405180910390f35b34801561045257600080fd5b5061045b611d80565b60405180821515815260200191505060405180910390f35b34801561047f57600080fd5b50610488611d97565b604051808273ffffffffffffffffffffffffffffffffffffffff16815260200191505060405180910390f35b3480156104c057600080fd5b506104c9611dbd565b005b61061b600480360360408110156104e157600080fd5b81019080803590602001906401000000008111156104fe57600080fd5b82018360208201111561051057600080fd5b8035906020019184600183028401116401000000008311171561053257600080fd5b91908080601f016020809104026020016040519081016040528093929190818152602001838380828437600081840152601f19601f8201169050808301925050505050505091929192908035906020019064010000000081111561059557600080fd5b8201836020820111156105a757600080fd5b803590602001918460018302840111640100000000831117156105c957600080fd5b91908080601f016020809104026020016040519081016040528093929190818152602001838380828437600081840152601f19601f820116905080830192505050505050509192919290505050611e66565b005b34801561062957600080fd5b506107036004803603604081101561064057600080fd5b810190808035906020019064010000000081111561065d57600080fd5b82018360208201111561066f57600080fd5b8035906020019184600183028401116401000000008311171561069157600080fd5b91908080601f016020809104026020016040519081016040528093929190818152602001838380828437600081840152601f19601f820116905080830192505050505050509192919290803573ffffffffffffffffffffffffffffffffffffffff169060200190929190505050611f92565b60405180821515815260200191505060405180910390f35b34801561072757600080fd5b50610730612445565b604051808273ffffffffffffffffffffffffffffffffffffffff16815260200191505060405180910390f35b34801561076857600080fd5b5061077161246f565b604051808273ffffffffffffffffffffffffffffffffffffffff16815260200191505060405180910390f35b3480156107a957600080fd5b50610863600480360360208110156107c057600080fd5b81019080803590602001906401000000008111156107dd57600080fd5b8201836020820111156107ef57600080fd5b8035906020019184600183028401116401000000008311171561081157600080fd5b91908080601f016020809104026020016040519081016040528093929190818152602001838380828437600081840152601f19601f820116905080830192505050505050509192919290505050612519565b6040518080602001828103825283818151815260200191508051906020019060200280838360005b838110156108a657808201518184015260208101905061088b565b505050509050019250505060405180910390f35b3480156108c657600080fd5b506109a0600480360360408110156108dd57600080fd5b81019080803590602001906401000000008111156108fa57600080fd5b82018360208201111561090c57600080fd5b8035906020019184600183028401116401000000008311171561092e57600080fd5b91908080601f016020809104026020016040519081016040528093929190818152602001838380828437600081840152601f19601f820116905080830192505050505050509192919290803573ffffffffffffffffffffffffffffffffffffffff169060200190929190505050612539565b60405180821515815260200191505060405180910390f35b3480156109c457600080fd5b50610ab2600480360360808110156109db57600080fd5b81019080803573ffffffffffffffffffffffffffffffffffffffff1690602001909291908035906020019092919080359060200190640100000000811115610a2257600080fd5b820183602082011115610a3457600080fd5b80359060200191846001830284011164010000000083111715610a5657600080fd5b91908080601f016020809104026020016040519081016040528093929190818152602001838380828437600081840152601f19601f820116905080830192505050505050509192919290803590602001909291905050506128c5565b60405180821515815260200191505060405180910390f35b348015610ad657600080fd5b50610c5160048036036080811015610aed57600080fd5b81019080803573ffffffffffffffffffffffffffffffffffffffff1690602001909291908035906020019092919080359060200190640100000000811115610b3457600080fd5b820183602082011115610b4657600080fd5b80359060200191846001830284011164010000000083111715610b6857600080fd5b91908080601f016020809104026020016040519081016040528093929190818152602001838380828437600081840152601f19601f82011690508083019250505050505050919291929080359060200190640100000000811115610bcb57600080fd5b820183602082011115610bdd57600080fd5b80359060200191846001830284011164010000000083111715610bff57600080fd5b91908080601f016020809104026020016040519081016040528093929190818152602001838380828437600081840152601f19601f82011690508083019250505050505050919291929050505061314c565b005b348015610c5f57600080fd5b50610c686134d3565b6040518082815260200191505060405180910390f35b348015610c8a57600080fd5b50610d4e60048036036040811015610ca157600080fd5b8101908080359060200190640100000000811115610cbe57600080fd5b820183602082011115610cd057600080fd5b80359060200191846001830284011164010000000083111715610cf257600080fd5b91908080601f016020809104026020016040519081016040528093929190818152602001838380828437600081840152601f19601f820116905080830192505050505050509192919290803590602001909291905050506134dd565b60405180821515815260200191505060405180910390f35b6000610d957f46a52cf33029de9f84853745a87af28464c80bf0346df1b32e205fc73319f62260001b336138f6565b610e07576040517f08c379a000000000000000000000000000000000000000000000000000000000815260040180806020018281038252600e8152602001807f77726f6e67206f70657261746f7200000000000000000000000000000000000081525060200191505060405180910390fd5b600560009054906101000a900460ff1615610e8a576040517f08c379a00000000000000000000000000000000000000000000000000000000081526004018080602001828103825260108152602001807f5061757361626c653a207061757365640000000000000000000000000000000081525060200191505060405180910390fd5b8360008111610f01576040517f08c379a000000000000000000000000000000000000000000000000000000000815260040180806020018281038252600e8152602001807f76616c7565206e656564203e203000000000000000000000000000000000000081525060200191505060405180910390fd5b6000879050858173ffffffffffffffffffffffffffffffffffffffff166370a08231306040518263ffffffff1660e01b8152600401808273ffffffffffffffffffffffffffffffffffffffff16815260200191505060206040518083038186803b158015610f6e57600080fd5b505afa158015610f82573d6000803e3d6000fd5b505050506040513d6020811015610f9857600080fd5b8101908080519060200190929190505050101561101d576040517f08c379a000000000000000000000000000000000000000000000000000000000815260040180806020018281038252601d8152602001807f636f6e747261637420686173206e6f7420656e6f75676820657263323000000081525060200191505060405180910390fd5b868686604051602001808473ffffffffffffffffffffffffffffffffffffffff1660601b815260140183815260200182805190602001908083835b6020831061107b5780518252602082019150602081019050602083039250611058565b6001836020036101000a038019825116818451168082178552505050505050905001935050505060405160208183030381529060405280519060200120841461112c576040517f08c379a00000000000000000000000000000000000000000000000000000000081526004018080602001828103825260118152602001807f7461736b486173682069732077726f6e6700000000000000000000000000000081525060200191505060405180910390fd5b6000600660009054906101000a900473ffffffffffffffffffffffffffffffffffffffff1673ffffffffffffffffffffffffffffffffffffffff1663ae0fd47f600660009054906101000a900473ffffffffffffffffffffffffffffffffffffffff1673ffffffffffffffffffffffffffffffffffffffff1663478538026040518163ffffffff1660e01b815260040160206040518083038186803b1580156111d457600080fd5b505afa1580156111e8573d6000803e3d6000fd5b505050506040513d60208110156111fe57600080fd5b810190808051906020019092919050505087336004546040518563ffffffff1660e01b8152600401808581526020018481526020018373ffffffffffffffffffffffffffffffffffffffff168152602001828152602001945050505050602060405180830381600087803b15801561127557600080fd5b505af1158015611289573d6000803e3d6000fd5b505050506040513d602081101561129f57600080fd5b81019080805190602001909291905050509050600660009054906101000a900473ffffffffffffffffffffffffffffffffffffffff1673ffffffffffffffffffffffffffffffffffffffff1663afd464f26040518163ffffffff1660e01b815260040160206040518083038186803b15801561131a57600080fd5b505afa15801561132e573d6000803e3d6000fd5b505050506040513d602081101561134457600080fd5b8101908080519060200190929190505050811415611433578873ffffffffffffffffffffffffffffffffffffffff168873ffffffffffffffffffffffffffffffffffffffff167f91b4005f248ece53c5402f0c547c6a472d18676fbb0e2e15029d4869140cbe2089896040518083815260200180602001828103825283818151815260200191508051906020019080838360005b838110156113f35780820151818401526020810190506113d8565b50505050905090810190601f1680156114205780820380516001836020036101000a031916815260200191505b50935050505060405180910390a36118a1565b600660009054906101000a900473ffffffffffffffffffffffffffffffffffffffff1673ffffffffffffffffffffffffffffffffffffffff166310224a986040518163ffffffff1660e01b815260040160206040518083038186803b15801561149b57600080fd5b505afa1580156114af573d6000803e3d6000fd5b505050506040513d60208110156114c557600080fd5b81019080805190602001909291905050508114156118a057600560019054906101000a900473ffffffffffffffffffffffffffffffffffffffff1673ffffffffffffffffffffffffffffffffffffffff168973ffffffffffffffffffffffffffffffffffffffff1614156115c1578173ffffffffffffffffffffffffffffffffffffffff1663867904b489896040518363ffffffff1660e01b8152600401808373ffffffffffffffffffffffffffffffffffffffff16815260200182815260200192505050600060405180830381600087803b1580156115a457600080fd5b505af11580156115b8573d6000803e3d6000fd5b505050506116fb565b8173ffffffffffffffffffffffffffffffffffffffff166340c10f1989896040518363ffffffff1660e01b8152600401808373ffffffffffffffffffffffffffffffffffffffff16815260200182815260200192505050600060405180830381600087803b15801561163257600080fd5b505af1925050508015611643575060015b6116f9578173ffffffffffffffffffffffffffffffffffffffff1663a9059cbb89896040518363ffffffff1660e01b8152600401808373ffffffffffffffffffffffffffffffffffffffff16815260200182815260200192505050602060405180830381600087803b1580156116b857600080fd5b505af11580156116cc573d6000803e3d6000fd5b505050506040513d60208110156116e257600080fd5b8101908080519060200190929190505050506116fa565b5b5b8873ffffffffffffffffffffffffffffffffffffffff168873ffffffffffffffffffffffffffffffffffffffff167f91b4005f248ece53c5402f0c547c6a472d18676fbb0e2e15029d4869140cbe2089896040518083815260200180602001828103825283818151815260200191508051906020019080838360005b83811015611792578082015181840152602081019050611777565b50505050905090810190601f1680156117bf5780820380516001836020036101000a031916815260200191505b50935050505060405180910390a38873ffffffffffffffffffffffffffffffffffffffff168873ffffffffffffffffffffffffffffffffffffffff167f044513e921a12ac6560730ac3063f7946fdcb715deb39bc6f84c38be8083648a89896040518083815260200180602001828103825283818151815260200191508051906020019080838360005b83811015611864578082015181840152602081019050611849565b50505050905090810190601f1680156118915780820380516001836020036101000a031916815260200191505b50935050505060405180910390a35b5b6001935050505095945050505050565b6040518060400160405280600681526020017f427269646765000000000000000000000000000000000000000000000000000081525081565b6000600454905090565b600560009054906101000a900460ff16611976576040517f08c379a00000000000000000000000000000000000000000000000000000000081526004018080602001828103825260148152602001807f5061757361626c653a206e6f742070617573656400000000000000000000000081525060200191505060405180910390fd5b600073ffffffffffffffffffffffffffffffffffffffff168173ffffffffffffffffffffffffffffffffffffffff161415611a19576040517f08c379a000000000000000000000000000000000000000000000000000000000815260040180806020018281038252600d8152602001807f77726f6e6720616464726573730000000000000000000000000000000000000081525060200191505060405180910390fd5b6000611a268484846139c1565b90508015611be7576000846040516020018082805190602001908083835b60208310611a675780518252602082019150602081019050602083039250611a44565b6001836020036101000a0380198251168184511680821785525050505050509050019150506040516020818303038152906040528051906020012090507f397bc5b97f629151e68146caedba62f10b47e426b38db589771a288c0861f18260001b811415611b155782600660006101000a81548173ffffffffffffffffffffffffffffffffffffffff021916908373ffffffffffffffffffffffffffffffffffffffff160217905550611be5565b7fe41d88711b08bdcd7556c5d2d24e0da6fa1f614cf2055f4d7e10206017cd168060001b811415611be457600660009054906101000a900473ffffffffffffffffffffffffffffffffffffffff1673ffffffffffffffffffffffffffffffffffffffff1663b0d80346846040518263ffffffff1660e01b8152600401808273ffffffffffffffffffffffffffffffffffffffff168152602001915050600060405180830381600087803b158015611bcb57600080fd5b505af1158015611bdf573d6000803e3d6000fd5b505050505b5b505b50505050565b611c1a7f0cc58340b26c619cd4edc70f833d3f4d9d26f3ae7d5ef2965f81fe5495049a4f60001b336138f6565b611c8c576040517f08c379a000000000000000000000000000000000000000000000000000000000815260040180806020018281038252600c8152602001807f77726f6e6720706175736572000000000000000000000000000000000000000081525060200191505060405180910390fd5b611c94613ca8565b565b6000611cc57f02016836a56b71f0d02689e69e326f4f4c1b9057164ef592671cf0d37c8040c060001b336138f6565b611d37576040517f08c379a00000000000000000000000000000000000000000000000000000000081526004018080602001828103825260168152602001807f6f6e6c7920757365206f776e657220746f2063616c6c0000000000000000000081525060200191505060405180910390fd5b611d4082613d9b565b7f468b360fa155a4c5fdf0cb38ce238407e41508a56023e7536088c21b2cd64139826040518082815260200191505060405180910390a160019050919050565b6000600560009054906101000a900460ff16905090565b600560019054906101000a900473ffffffffffffffffffffffffffffffffffffffff1681565b611dea7f0cc58340b26c619cd4edc70f833d3f4d9d26f3ae7d5ef2965f81fe5495049a4f60001b336138f6565b611e5c576040517f08c379a000000000000000000000000000000000000000000000000000000000815260040180806020018281038252600c8152602001807f77726f6e6720706175736572000000000000000000000000000000000000000081525060200191505060405180910390fd5b611e64613dd4565b565b3373ffffffffffffffffffffffffffffffffffffffff167f219295438b17c92dbc62ee9b1874dc1a25cf55368e13d34d65325217d4acbafe348484604051808481526020018060200180602001838103835285818151815260200191508051906020019080838360005b83811015611eeb578082015181840152602081019050611ed0565b50505050905090810190601f168015611f185780820380516001836020036101000a031916815260200191505b50838103825284818151815260200191508051906020019080838360005b83811015611f51578082015181840152602081019050611f36565b50505050905090810190601f168015611f7e5780820380516001836020036101000a031916815260200191505b509550505050505060405180910390a25050565b6000611fc17f02016836a56b71f0d02689e69e326f4f4c1b9057164ef592671cf0d37c8040c060001b336138f6565b612033576040517f08c379a00000000000000000000000000000000000000000000000000000000081526004018080602001828103825260168152602001807f6f6e6c7920757365206f776e657220746f2063616c6c0000000000000000000081525060200191505060405180910390fd5b600061203e84613ec8565b90507fe41d88711b08bdcd7556c5d2d24e0da6fa1f614cf2055f4d7e10206017cd168060001b811415801561209657507f397bc5b97f629151e68146caedba62f10b47e426b38db589771a288c0861f18260001b8114155b612108576040517f08c379a000000000000000000000000000000000000000000000000000000000815260040180806020018281038252600b8152602001807f77726f6e6720636c61737300000000000000000000000000000000000000000081525060200191505060405180910390fd5b61211281846138f6565b612184576040517f08c379a00000000000000000000000000000000000000000000000000000000081526004018080602001828103825260158152602001807f6e6f20737563682061646472657373206578697374000000000000000000000081525060200191505060405180910390fd5b7f02016836a56b71f0d02689e69e326f4f4c1b9057164ef592671cf0d37c8040c060001b81141561222f576003546121bb82613fc3565b1161222e576040517f08c379a00000000000000000000000000000000000000000000000000000000081526004018080602001828103825260158152602001807f696e7375666669656e636520616464726573736573000000000000000000000081525060200191505060405180910390fd5b5b6000848460405160200180807f64726f7041646472657373000000000000000000000000000000000000000000815250600b0183805190602001908083835b60208310612291578051825260208201915060208101905060208303925061226e565b6001836020036101000a0380198251168184511680821785525050505050509050018273ffffffffffffffffffffffffffffffffffffffff1660601b8152601401925050506040516020818303038152906040528051906020012090506122f88133613fe6565b60035461230482613fc3565b1061243857612313828561416e565b7fb02ddf2800cd4468f7eb14268a7c9f1b6e816aa425ed542d13d8d3a96fa445668585866040518080602001806020018573ffffffffffffffffffffffffffffffffffffffff1681526020018473ffffffffffffffffffffffffffffffffffffffff1681526020018381038352600b8152602001807f64726f7041646472657373000000000000000000000000000000000000000000815250602001838103825286818151815260200191508051906020019080838360005b838110156123e75780820151818401526020810190506123cc565b50505050905090810190601f1680156124145780820380516001836020036101000a031916815260200191505b509550505050505060405180910390a161242d81613d9b565b60019250505061243f565b6000925050505b92915050565b6000600660009054906101000a900473ffffffffffffffffffffffffffffffffffffffff16905090565b6000600660009054906101000a900473ffffffffffffffffffffffffffffffffffffffff1673ffffffffffffffffffffffffffffffffffffffff1663b07ed3a96040518163ffffffff1660e01b815260040160206040518083038186803b1580156124d957600080fd5b505afa1580156124ed573d6000803e3d6000fd5b505050506040513d602081101561250357600080fd5b8101908080519060200190929190505050905090565b6060600061252683613ec8565b90506125318161434e565b915050919050565b60006125687f02016836a56b71f0d02689e69e326f4f4c1b9057164ef592671cf0d37c8040c060001b336138f6565b6125da576040517f08c379a00000000000000000000000000000000000000000000000000000000081526004018080602001828103825260168152602001807f6f6e6c7920757365206f776e657220746f2063616c6c0000000000000000000081525060200191505060405180910390fd5b60006125e584613ec8565b90507fe41d88711b08bdcd7556c5d2d24e0da6fa1f614cf2055f4d7e10206017cd168060001b811415801561263d57507f397bc5b97f629151e68146caedba62f10b47e426b38db589771a288c0861f18260001b8114155b6126af576040517f08c379a000000000000000000000000000000000000000000000000000000000815260040180806020018281038252600b8152602001807f77726f6e6720636c61737300000000000000000000000000000000000000000081525060200191505060405180910390fd5b6000848460405160200180807f6164644164647265737300000000000000000000000000000000000000000000815250600a0183805190602001908083835b6020831061271157805182526020820191506020810190506020830392506126ee565b6001836020036101000a0380198251168184511680821785525050505050509050018273ffffffffffffffffffffffffffffffffffffffff1660601b8152601401925050506040516020818303038152906040528051906020012090506127788133613fe6565b60035461278482613fc3565b106128b8576127938285613fe6565b7fb02ddf2800cd4468f7eb14268a7c9f1b6e816aa425ed542d13d8d3a96fa445668585866040518080602001806020018573ffffffffffffffffffffffffffffffffffffffff1681526020018473ffffffffffffffffffffffffffffffffffffffff1681526020018381038352600a8152602001807f6164644164647265737300000000000000000000000000000000000000000000815250602001838103825286818151815260200191508051906020019080838360005b8381101561286757808201518184015260208101905061284c565b50505050905090810190601f1680156128945780820380516001836020036101000a031916815260200191505b509550505050505060405180910390a16128ad81613d9b565b6001925050506128bf565b6000925050505b92915050565b60006128f47f46a52cf33029de9f84853745a87af28464c80bf0346df1b32e205fc73319f62260001b336138f6565b612966576040517f08c379a000000000000000000000000000000000000000000000000000000000815260040180806020018281038252600e8152602001807f77726f6e67206f70657261746f7200000000000000000000000000000000000081525060200191505060405180910390fd5b600560009054906101000a900460ff16156129e9576040517f08c379a00000000000000000000000000000000000000000000000000000000081526004018080602001828103825260108152602001807f5061757361626c653a207061757365640000000000000000000000000000000081525060200191505060405180910390fd5b8360008111612a60576040517f08c379a000000000000000000000000000000000000000000000000000000000815260040180806020018281038252600e8152602001807f76616c7565206e656564203e203000000000000000000000000000000000000081525060200191505060405180910390fd5b84471015612ad6576040517f08c379a000000000000000000000000000000000000000000000000000000000815260040180806020018281038252601e8152602001807f636f6e747261637420686173206e6f7420656e6f756768206e6174697665000081525060200191505060405180910390fd5b858585604051602001808473ffffffffffffffffffffffffffffffffffffffff1660601b815260140183815260200182805190602001908083835b60208310612b345780518252602082019150602081019050602083039250612b11565b6001836020036101000a0380198251168184511680821785525050505050509050019350505050604051602081830303815290604052805190602001208314612be5576040517f08c379a00000000000000000000000000000000000000000000000000000000081526004018080602001828103825260118152602001807f7461736b486173682069732077726f6e6700000000000000000000000000000081525060200191505060405180910390fd5b6000600660009054906101000a900473ffffffffffffffffffffffffffffffffffffffff1673ffffffffffffffffffffffffffffffffffffffff1663ae0fd47f600660009054906101000a900473ffffffffffffffffffffffffffffffffffffffff1673ffffffffffffffffffffffffffffffffffffffff1663478538026040518163ffffffff1660e01b815260040160206040518083038186803b158015612c8d57600080fd5b505afa158015612ca1573d6000803e3d6000fd5b505050506040513d6020811015612cb757600080fd5b810190808051906020019092919050505086336004546040518563ffffffff1660e01b8152600401808581526020018481526020018373ffffffffffffffffffffffffffffffffffffffff168152602001828152602001945050505050602060405180830381600087803b158015612d2e57600080fd5b505af1158015612d42573d6000803e3d6000fd5b505050506040513d6020811015612d5857600080fd5b81019080805190602001909291905050509050600660009054906101000a900473ffffffffffffffffffffffffffffffffffffffff1673ffffffffffffffffffffffffffffffffffffffff1663afd464f26040518163ffffffff1660e01b815260040160206040518083038186803b158015612dd357600080fd5b505afa158015612de7573d6000803e3d6000fd5b505050506040513d6020811015612dfd57600080fd5b8101908080519060200190929190505050811415612ed5578673ffffffffffffffffffffffffffffffffffffffff167f85c53e7e269cd44a12210170eb2636cdc0d111b93e101a211305e0144733995587876040518083815260200180602001828103825283818151815260200191508051906020019080838360005b83811015612e95578082015181840152602081019050612e7a565b50505050905090810190601f168015612ec25780820380516001836020036101000a031916815260200191505b50935050505060405180910390a261313e565b600660009054906101000a900473ffffffffffffffffffffffffffffffffffffffff1673ffffffffffffffffffffffffffffffffffffffff166310224a986040518163ffffffff1660e01b815260040160206040518083038186803b158015612f3d57600080fd5b505afa158015612f51573d6000803e3d6000fd5b505050506040513d6020811015612f6757600080fd5b810190808051906020019092919050505081141561313d578673ffffffffffffffffffffffffffffffffffffffff166108fc879081150290604051600060405180830381858888f19350505050158015612fc5573d6000803e3d6000fd5b508673ffffffffffffffffffffffffffffffffffffffff167f85c53e7e269cd44a12210170eb2636cdc0d111b93e101a211305e0144733995587876040518083815260200180602001828103825283818151815260200191508051906020019080838360005b8381101561304657808201518184015260208101905061302b565b50505050905090810190601f1680156130735780820380516001836020036101000a031916815260200191505b50935050505060405180910390a28673ffffffffffffffffffffffffffffffffffffffff167fd8ff38332185c42ca14ded5671b8eb2842095abf024f6900cb42760ccb438f3387876040518083815260200180602001828103825283818151815260200191508051906020019080838360005b838110156131015780820151818401526020810190506130e6565b50505050905090810190601f16801561312e5780820380516001836020036101000a031916815260200191505b50935050505060405180910390a25b5b600192505050949350505050565b6000849050600560019054906101000a900473ffffffffffffffffffffffffffffffffffffffff1673ffffffffffffffffffffffffffffffffffffffff168573ffffffffffffffffffffffffffffffffffffffff161415613235578073ffffffffffffffffffffffffffffffffffffffff16631e9a695033866040518363ffffffff1660e01b8152600401808373ffffffffffffffffffffffffffffffffffffffff16815260200182815260200192505050600060405180830381600087803b15801561321857600080fd5b505af115801561322c573d6000803e3d6000fd5b5050505061338d565b8073ffffffffffffffffffffffffffffffffffffffff16639dc29fac33866040518363ffffffff1660e01b8152600401808373ffffffffffffffffffffffffffffffffffffffff16815260200182815260200192505050600060405180830381600087803b1580156132a657600080fd5b505af19250505080156132b7575060015b61338b578073ffffffffffffffffffffffffffffffffffffffff166323b872dd3330876040518463ffffffff1660e01b8152600401808473ffffffffffffffffffffffffffffffffffffffff1681526020018373ffffffffffffffffffffffffffffffffffffffff1681526020018281526020019350505050602060405180830381600087803b15801561334a57600080fd5b505af115801561335e573d6000803e3d6000fd5b505050506040513d602081101561337457600080fd5b81019080805190602001909291905050505061338c565b5b5b8473ffffffffffffffffffffffffffffffffffffffff163373ffffffffffffffffffffffffffffffffffffffff167f1679238c2675abb2a284618f6bc542d8166db8644922f0131860861bd16373a4868686604051808481526020018060200180602001838103835285818151815260200191508051906020019080838360005b8381101561342957808201518184015260208101905061340e565b50505050905090810190601f1680156134565780820380516001836020036101000a031916815260200191505b50838103825284818151815260200191508051906020019080838360005b8381101561348f578082015181840152602081019050613474565b50505050905090810190601f1680156134bc5780820380516001836020036101000a031916815260200191505b509550505050505060405180910390a35050505050565b6000600354905090565b600061350c7f02016836a56b71f0d02689e69e326f4f4c1b9057164ef592671cf0d37c8040c060001b336138f6565b61357e576040517f08c379a00000000000000000000000000000000000000000000000000000000081526004018080602001828103825260168152602001807f6f6e6c7920757365206f776e657220746f2063616c6c0000000000000000000081525060200191505060405180910390fd5b600061358984613ec8565b90507f46a52cf33029de9f84853745a87af28464c80bf0346df1b32e205fc73319f62260001b8114806135de57507f02016836a56b71f0d02689e69e326f4f4c1b9057164ef592671cf0d37c8040c060001b81145b613650576040517f08c379a000000000000000000000000000000000000000000000000000000000815260040180806020018281038252600b8152602001807f77726f6e6720636c61737300000000000000000000000000000000000000000081525060200191505060405180910390fd5b6000848460405160200180807f726573657452657175697265644e756d0000000000000000000000000000000081525060100183805190602001908083835b602083106136b2578051825260208201915060208101905060208303925061368f565b6001836020036101000a038019825116818451168082178552505050505050905001828152602001925050506040516020818303038152906040528051906020012090506137008133613fe6565b60035461370c82613fc3565b106138ea5761371a81613d9b565b60007f02016836a56b71f0d02689e69e326f4f4c1b9057164ef592671cf0d37c8040c060001b83141561375857600354905084600381905550613803565b7f46a52cf33029de9f84853745a87af28464c80bf0346df1b32e205fc73319f62260001b83141561379457600454905084600481905550613802565b6040517f08c379a000000000000000000000000000000000000000000000000000000000815260040180806020018281038252600b8152602001807f77726f6e6720636c61737300000000000000000000000000000000000000000081525060200191505060405180910390fd5b5b7fce49fc04234925e87b95750e0e50cac6d4ffcf8a696e3316b3e13bedc84ee7a8868287604051808060200180602001858152602001848152602001838103835260108152602001807f726573657452657175697265644e756d00000000000000000000000000000000815250602001838103825286818151815260200191508051906020019080838360005b838110156138ab578082015181840152602081019050613890565b50505050905090810190601f1680156138d85780820380516001836020036101000a031916815260200191505b509550505050505060405180910390a1505b60019250505092915050565b600080600090505b60016000858152602001908152602001600020600201805490508110156139b5578273ffffffffffffffffffffffffffffffffffffffff1660016000868152602001908152602001600020600201828154811061395757fe5b9060005260206000200160009054906101000a900473ffffffffffffffffffffffffffffffffffffffff1673ffffffffffffffffffffffffffffffffffffffff1614156139a85760019150506139bb565b80806001019150506138fe565b50600090505b92915050565b60006139f07f02016836a56b71f0d02689e69e326f4f4c1b9057164ef592671cf0d37c8040c060001b336138f6565b613a62576040517f08c379a00000000000000000000000000000000000000000000000000000000081526004018080602001828103825260168152602001807f6f6e6c7920757365206f776e657220746f2063616c6c0000000000000000000081525060200191505060405180910390fd5b6000613a6d85613ec8565b9050600085858560405160200180807f6d6f646966794164647265737300000000000000000000000000000000000000815250600d0184805190602001908083835b60208310613ad25780518252602082019150602081019050602083039250613aaf565b6001836020036101000a0380198251168184511680821785525050505050509050018373ffffffffffffffffffffffffffffffffffffffff1660601b81526014018273ffffffffffffffffffffffffffffffffffffffff1660601b81526014019350505050604051602081830303815290604052805190602001209050613b598133613fe6565b600354613b6582613fc3565b10613c9a57613b758286866143f2565b7fb02ddf2800cd4468f7eb14268a7c9f1b6e816aa425ed542d13d8d3a96fa445668686866040518080602001806020018573ffffffffffffffffffffffffffffffffffffffff1681526020018473ffffffffffffffffffffffffffffffffffffffff1681526020018381038352600d8152602001807f6d6f646966794164647265737300000000000000000000000000000000000000815250602001838103825286818151815260200191508051906020019080838360005b83811015613c49578082015181840152602081019050613c2e565b50505050905090810190601f168015613c765780820380516001836020036101000a031916815260200191505b509550505050505060405180910390a1613c8f81613d9b565b600192505050613ca1565b6000925050505b9392505050565b600560009054906101000a900460ff16613d2a576040517f08c379a00000000000000000000000000000000000000000000000000000000081526004018080602001828103825260148152602001807f5061757361626c653a206e6f742070617573656400000000000000000000000081525060200191505060405180910390fd5b6000600560006101000a81548160ff0219169083151502179055507f5db9ee0a495bf2e6ff9c91a7834c1ba4fdd244a5e8aa4e537bd38aeae4b073aa613d6e614519565b604051808273ffffffffffffffffffffffffffffffffffffffff16815260200191505060405180910390a1565b600160008281526020019081526020016000206000808201600090556001820160009055600282016000613dcf9190614577565b505050565b600560009054906101000a900460ff1615613e57576040517f08c379a00000000000000000000000000000000000000000000000000000000081526004018080602001828103825260108152602001807f5061757361626c653a207061757365640000000000000000000000000000000081525060200191505060405180910390fd5b6001600560006101000a81548160ff0219169083151502179055507f62e78cea01bee320cd4e420270b5ea74000d11b0c9f74754ebdbfc544b05a258613e9b614519565b604051808273ffffffffffffffffffffffffffffffffffffffff16815260200191505060405180910390a1565b600080826040516020018082805190602001908083835b60208310613f025780518252602082019150602081019050602083039250613edf565b6001836020036101000a038019825116818451168082178552505050505050905001915050604051602081830303815290604052805190602001209050613f4881614521565b613fba576040517f08c379a000000000000000000000000000000000000000000000000000000000815260040180806020018281038252600d8152602001807f696e76616c696420636c6173730000000000000000000000000000000000000081525060200191505060405180910390fd5b80915050919050565b600060016000838152602001908152602001600020600201805490509050919050565b613ff082826138f6565b15614063576040517f08c379a00000000000000000000000000000000000000000000000000000000081526004018080602001828103825260118152602001807f647570206164647265737320616464656400000000000000000000000000000081525060200191505060405180910390fd5b6000546001600084815260200190815260200160002060020180549050106140f3576040517f08c379a00000000000000000000000000000000000000000000000000000000081526004018080602001828103825260128152602001807f746f6f206d616e7920616464726573736573000000000000000000000000000081525060200191505060405180910390fd5b60016000838152602001908152602001600020600201819080600181540180825580915050600190039060005260206000200160009091909190916101000a81548173ffffffffffffffffffffffffffffffffffffffff021916908373ffffffffffffffffffffffffffffffffffffffff1602179055505050565b60005b6001600084815260200190815260200160002060020180549050811015614348578173ffffffffffffffffffffffffffffffffffffffff166001600085815260200190815260200160002060020182815481106141ca57fe5b9060005260206000200160009054906101000a900473ffffffffffffffffffffffffffffffffffffffff1673ffffffffffffffffffffffffffffffffffffffff16141561433b5760016000848152602001908152602001600020600201600180600086815260200190815260200160002060020180549050038154811061424d57fe5b9060005260206000200160009054906101000a900473ffffffffffffffffffffffffffffffffffffffff1660016000858152602001908152602001600020600201828154811061429957fe5b9060005260206000200160006101000a81548173ffffffffffffffffffffffffffffffffffffffff021916908373ffffffffffffffffffffffffffffffffffffffff1602179055506001600084815260200190815260200160002060020180548061430057fe5b6001900381819060005260206000200160006101000a81549073ffffffffffffffffffffffffffffffffffffffff021916905590555061434a565b8080600101915050614171565b505b5050565b6060600160008381526020019081526020016000206002018054806020026020016040519081016040528092919081815260200182805480156143e657602002820191906000526020600020905b8160009054906101000a900473ffffffffffffffffffffffffffffffffffffffff1673ffffffffffffffffffffffffffffffffffffffff168152602001906001019080831161439c575b50505050509050919050565b60005b6001600085815260200190815260200160002060020180549050811015614512578273ffffffffffffffffffffffffffffffffffffffff1660016000868152602001908152602001600020600201828154811061444e57fe5b9060005260206000200160009054906101000a900473ffffffffffffffffffffffffffffffffffffffff1673ffffffffffffffffffffffffffffffffffffffff16141561450557816001600086815260200190815260200160002060020182815481106144b757fe5b9060005260206000200160006101000a81548173ffffffffffffffffffffffffffffffffffffffff021916908373ffffffffffffffffffffffffffffffffffffffff16021790555050614514565b80806001019150506143f5565b505b505050565b600033905090565b600080600090505b60028054905081101561456c57826002828154811061454457fe5b9060005260206000200154141561455f576001915050614572565b8080600101915050614529565b50600090505b919050565b50805460008255906000526020600020908101906145959190614598565b50565b5b808211156145b1576000816000905550600101614599565b509056fea2646970667358221220351401b555da0a38cc20b4c069fd2a9ead63770c46b5d3758cb338bc3d83c36164736f6c63430007010033",
  "linkReferences": {},
  "deployedLinkReferences": {}
}